:100000000C9461010C9489010C9489010C94890170
:100010000C9489010C9489010C9489010C94890138
:100020000C9489010C9489010C9489010C94890128
:100030000C9489010C9489010C9489010C94890118
:100040000C9488220C9489010C9456220C94302232
:100050000C9489010C9489010C9489010C948901F8
:100060000C94D2220C94890100407A10F35A00A01B
:10007000724E18090010A5D4E80000E87648170071
:1000800000E40B54020000CA9A3B000000E1F505B1
:10009000000080969800000040420F000000A086FB
:1000A00001000000102700000000E803000000002D
:1000B0006400000000000A000000000001000000D1
:1000C00000002C76D888DC674F0823DFC1DFAE59EB
:1000D000E1B1B796E5E3E453C63AE651997696E87E
:1000E000E6C28426EB898C9B62ED407C6FFCEFBC02
:1000F0009C9F40F2BAA56FA5F490055A2AF75C932D
:100100006B6CF9676DC11BFCE0E40D47FEF520E662
:10011000B500D0ED902E0300943577050080841E45
:10012000080000204E0A000000C80C333333330FA0
:10013000986E12831141EF8D2114893BE65516CF3D
:10014000FEE6DB18D1844B381BF77C1D901DA4BB49
:10015000E424203284725E228100C9F124ECA1E5FE
:100160003D27626C6E6B696E660076657200312E9B
:10017000322E3000682D626561740034350062757E
:1001800066662D696E003235360064657600417210
:100190006475696E6F20556E6F0063707500415411
:1001A0006D6567613332385000636F6E00573531CB
:1001B00030300066772D7479706500544D504C33A3
:1001C0005955664A6C643770006275696C64004DFD
:1001D000617920203820323032332031353A3432C0
:1001E0003A343500000000000000250028002B00F4
:1001F00000000000240027002A0000000000230067
:100200002600290004040404040404040202020277
:1002100002020303030303030102040810204080C9
:100220000102040810200102040810200000000848
:1002300000020100000304070000000000000000AD
:100240008C018C018C018C018C018C018C018C0146
:100250008C018C018C018C018C018C018C018C0136
:100260008C018C018C018C018C018C018C018C0126
:100270008C018C018C018C018C018C018C018C0116
:100280008D0A8B01690A8B01430A1D0A8B018B01C0
:100290008B018B018B018B018B018B018B018B01FE
:1002A0008B018B018B018B018B018B018B018B01EE
:1002B0008B018B018B018B018B018B018B018B01DE
:1002C0007D2411241FBECFEFD8E0DEBFCDBF13E0E9
:1002D000A0E0B1E0EAE8FBE602C005900D92AC3088
:1002E000B107D9F726E0ACE0B3E001C01D92AB3412
:1002F000B207E1F711E0C1E6D1E004C02197FE01A9
:100300000E94C434C036D107C9F70E9472250C94EC
:10031000C3350C940000089508958CBD9DBD0895CB
:1003200020E3FC0120833296862F82958F706F70B8
:100330006A3030F4605D6293682F8111F5CF0895C3
:10034000695CF9CFFC01818D928D0895089508951F
:100350000895AF92BF92CF92DF92EF92FF920F93E8
:100360001F93CF93DF936C017B018B01040F151F4B
:10037000EB015E01AE18BF08C017D10759F06991B3
:10038000D601ED91FC910190F081E02DC601099517
:10039000892B79F7C501DF91CF911F910F91FF90C4
:1003A000EF90DF90CF90BF90AF900895FC01538DF8
:1003B000448D252F30E0842F90E0821B930B54173F
:1003C00010F0CF96089501970895FC01918D828DCC
:1003D000981761F0A28DAE0FBF2FB11D5D968C9165
:1003E000928D9F5F9F73928F90E008958FEF9FEFA4
:1003F0000895FC01918D828D981731F0828DE80F60
:10040000F11D858D90E008958FEF9FEF0895FC0119
:10041000918D228D892F90E0805C9F4F821B9109E6
:100420008F73992708958FE594E00E94070221E0D9
:10043000892B09F420E0822F089580E090E0892B39
:1004400029F00E94130281110C9400000895FC0110
:10045000A48DA80FB92FB11DA35ABF4F2C91848D25
:1004600090E001968F739927848FA689B7892C9382
:10047000A089B1898C91837080648C93938D848DD5
:10048000981306C00288F389E02D80818F7D8083D8
:100490000895EF92FF920F931F93CF93DF93EC0198
:1004A00081E0888F9B8D8C8D98131AC0E889F9891B
:1004B000808185FF15C09FB7F894EE89FF8960831E
:1004C000E889F98980818370806480839FBF81E09F
:1004D00090E0DF91CF911F910F91FF90EF900895E1
:1004E000F62E0B8D10E00F5F1F4F0F731127E02EBC
:1004F0008C8D8E110CC00FB607FCFACFE889F989F4
:10050000808185FFF5CFCE010E942702F1CFEB8DD0
:10051000EC0FFD2FF11DE35AFF4FF0829FB7F894C7
:100520000B8FEA89FB8980818062CFCF682F8FE5AE
:1005300094E00C944902CF93DF93EC01888D8823DB
:10054000B9F0AA89BB89E889F9898C9185FD03C036
:10055000808186FD0DC00FB607FCF7CF8C9185FF1B
:10056000F2CF808185FFEDCFCE010E942702E9CF37
:10057000DF91CF910895833081F028F4813099F094
:100580008230A9F008958730A9F08830C9F084300E
:10059000B1F4809180008F7D03C0809180008F77BF
:1005A00080938000089584B58F7784BD089584B5C5
:1005B0008F7DFBCF8091B0008F778093B00008953E
:1005C0008091B0008F7DF9CF1F93CF93DF93282FB9
:1005D00030E0F901E45DFD4F8491F901E85EFD4FE3
:1005E000D491F901EC5FFD4FC491CC23A9F0162FF3
:1005F00081110E94BB02EC2FF0E0EE0FFF1FEA51C9
:10060000FE4FA591B4918FB7F894EC91111108C0E9
:10061000D095DE23DC938FBFDF91CF911F9108959A
:10062000DE2BF8CFCF93DF9390E0FC01E85EFD4F27
:1006300024918C5F9D4FFC0184918823C9F090E048
:10064000880F991FFC01E051FE4FA591B491FC0168
:10065000EA51FE4FC591D49161110DC09FB7F89436
:100660008C91209582238C938881282328839FBF97
:10067000DF91CF910895623051F49FB7F8943C9187
:10068000822F809583238C93E8812E2BEFCF8FB719
:10069000F894EC912E2B2C938FBFEACF1F93CF931E
:1006A000DF93182FEB0161E00E941203209739F4C9
:1006B00060E0812FDF91CF911F910C94E402CF3F36
:1006C000D10511F461E0F5CFE12FF0E0E45DFD4FDD
:1006D000E491E33031F140F4E130B1F0E230E1F0A7
:1006E000C038D1057CF7E4CFE73029F1E83059F183
:1006F000E430B1F780918000806280938000D093D5
:100700008B00C0938A0004C084B5806884BDC7BDD7
:10071000DF91CF911F91089584B5806284BDC8BDDB
:10072000F7CF80918000806880938000D09389000B
:10073000C0938800EDCF8091B00080688093B000B6
:10074000C093B300E5CF8091B00080628093B00089
:10075000C093B400DDCF8E3008F08E508770806477
:1007600080937C0080917A00806480937A008091ED
:100770007A0086FDFCCF80917800909179000895F1
:100780003FB7F8948091C4039091C503A091C6032C
:10079000B091C70326B5A89B05C02F3F19F001965D
:1007A000A11DB11D3FBFBA2FA92F982F8827BC01CB
:1007B000CD01620F711D811D911D42E0660F771FF3
:1007C000881F991F4A95D1F708958F929F92AF92F3
:1007D000BF92CF92DF92EF92FF926B017C010E9459
:1007E000C0034B015C01C114D104E104F104B9F070
:1007F0000E94C003681979098A099B09683E734001
:100800008105910580F321E0C21AD108E108F108C1
:1008100088EE880E83E0981EA11CB11CE4CFFF90E7
:10082000EF90DF90CF90BF90AF909F908F90089502
:100830002FB7F8946091C0037091C1038091C203F7
:100840009091C3032FBF08954F925F926F927F9252
:10085000AF92BF92CF92DF92EF92FF920F931F93CE
:10086000CF93DF93EC016B017B01E40EF51E8B014E
:100870005801AC18BD080E151F0511F10E9418048F
:10088000688779878A879B87E881F9810284F38565
:10089000E02DCE01099597FF23C00E9418044884DB
:1008A00059846A847B8464197509860997094C8088
:1008B0005D806E807F80641575058605970520F341
:1008C000C501DF91CF911F910F91FF90EF90DF90C5
:1008D000CF90BF90AF907F906F905F904F900895B2
:1008E000F80181938F01C4CF20914E03260F332747
:1008F000331F21323105ECF420919703FC0190E085
:1009000080E0243069F082E00895A0914E032191A7
:10091000AC01425D5C4FA40FB52FB11D2C93019625
:10092000861798F380914E03680F60934E0380E022
:10093000089581E008951092970381E080939603D3
:100940001092710361E082E10E94E40261E083E1C0
:100950000E94E402E9EBF0E080818E7F8083808159
:100960008D7F808388E48093B80085E48093BC0009
:100970000895CF93DF9391E090932D038823B9F0EE
:10098000C091B800D091BA008091BC008A7B80935E
:10099000BC0060E082E10E94E40260E083E10E942A
:1009A000E4020E949B04D093BA00C093B800DF9188
:1009B000CF910895E091CF038091CE03E81730F4F2
:1009C000F0E0E35FFC4F808190E008958FEF9FEFB0
:1009D00008959091CF038091CE032FEF3FEF9817AA
:1009E00048F4E92FF0E0E35FFC4F208130E09F5FA7
:1009F0009093CF03C90108958091CE039091CF03C6
:100A0000891B990B0895CF92DF92EF92FF920F937B
:100A10001F93CF93DF937C01CB018A0120919D032B
:100A2000222389F0EB016B01C40ED51ECC15DD0528
:100A300069F06991D701ED91FC910190F081E02D71
:100A4000C7010995F3CF642F0E947404C801DF9198
:100A5000CF911F910F91FF90EF90DF90CF9008956D
:100A6000CF93DF931F92CDB7DEB7698320919D03AB
:100A70002223F9F02091CC03203258F021E030E01D
:100A8000FC013383228390E080E00F90DF91CF91CF
:100A900008958091CD03E82FF0E0E256FC4F998154
:100AA00090838F5F8093CD038093CC0381E090E0AF
:100AB000ECCF61E0CE0101960E947404F7CFCF9293
:100AC000DF92EF92FF920F931F93CF93DF93FC017E
:100AD000C48121E020939D03C093BE031092CD03F7
:100AE0001092CC038385682B8CEF94E00E94300534
:100AF000D091CC03D13208F092C00E94C0036B01A8
:100B00007C0180919703811165C082E080939703F7
:100B100081E0809396038FEF809395031092940366
:100B2000D0939303AEE9B3E0E3E7F3E080E0D813BA
:100B300085C01092720380917203CC0FC82BC093B2
:100B4000720380917103813009F07CC010927103AF
:100B50000E94C0036B017C01809172038093BB00F3
:100B60008091990390919A03A0919B03B0919C036B
:100B7000892B8A2B8B2B99F00E94C003009199033B
:100B800010919A0320919B0330919C036C197D096D
:100B90008E099F090617170728073907E0F180918A
:100BA000BC0083FDD9CF85EC8093BC000E94C003BC
:100BB0006B017C0180919703823009F445C08091DC
:100BC00095038F3F61F180919503803241F18091CF
:100BD000950325C08091990390919A03A0919B035E
:100BE000B0919C03892B8A2B8B2B09F48ACF0E940E
:100BF000C0030091990310919A0320919B033091B7
:100C00009C036C197D098E099F0906171707280791
:100C1000390708F076CF809198030E94B9041092AA
:100C2000CD031092CC0310929D03DF91CF911F91C1
:100C30000F91FF90EF90DF90CF9008959D91919349
:100C40008F5F75CF85EEB0CF8091990390919A0315
:100C5000A0919B03B0919C03892B8A2B8B2B09F4C9
:100C6000A9CF0E94C0030091990310919A0320918B
:100C70009B0330919C036C197D098E099F0906170F
:100C800017072807390708F095CFC5CFFC01208149
:100C90002EBD9B012150310941F051810DB407FE59
:100CA000FDCF4EB55EBD4193F5CF61507109860F02
:100CB000971F0DB407FEFDCF2EB5FC0120830895CC
:100CC000E091D103F091D20380819091D003892BE0
:100CD00080830895E091D103F091D20390818091B7
:100CE000D00380958923808308958EBD00000DB4C4
:100CF00007FEFDCF8EB50895AF92BF92CF92DF92DF
:100D0000EF92FF920F931F93CF93DF93CDB7DEB790
:100D100028970FB6F894DEBF0FBECDBF8C017B01C4
:100D20006A0180915E048333E1F45801A40EB51E7C
:100D3000A016B10609F46FC00E946A0680EF0E94F7
:100D40007506812F0E947506802F0E9475060F5F21
:100D50001F4FF70181917F010E9475060E94600676
:100D6000E7CF5B01A40EB51E8433C1F40E946A066E
:100D700019830A838D2D80688B83CC8264E070E0B8
:100D8000CE0101960E944606AE14BF0409F441C08C
:100D9000F70181917F010E947506F6CF0E946A06D5
:100DA0000F3F110509F028F419820A8384E08B8330
:100DB0000CC017FD17C019820A8333E016950795FA
:100DC0003A95E1F7007E0C600B8386E0C816D104EB
:100DD000A0F5F701DE011496EA15FB0599F0819163
:100DE0008D93FACFC80126E0969587952A95E1F76D
:100DF000807E19830A830115104C10F48461D7CFCB
:100E00008C61D5CFB6016D5F7F4FCE0101960E94F8
:100E100046060E946006C60128960FB6F894DEBF0B
:100E20000FBECDBFDF91CF911F910F91FF90EF903B
:100E3000DF90CF90BF90AF90089563E070E0CE0157
:100E400001960E944606F70181917F010E94750676
:100E5000AE14BF04C1F7DDCFCF93DF931F92CDB7A0
:100E6000DEB7898341E050E0BE016F5F7F4F90E0C5
:100E700080E00E947C060F90DF91CF91089590E072
:100E800020915E04233339F40C96982F990F990F13
:100E9000990F80E008954896F8CFDA01E091D403E5
:100EA000F0E0FE2FEE27E60FF71F90E0982F88273F
:100EB000A901BD018E0F9F1F0C947C06CF93DF9379
:100EC00000D0CDB7DEB779836A8322E030E0AE018F
:100ED0004F5F5F4F60E170E00E944D070F900F90F1
:100EE000DF91CF910895CF93DF9300D0CDB7DEB7D8
:100EF00079836A8322E030E0AE014F5F5F4F64E0A8
:100F000070E00E944D070F900F90DF91CF910895F0
:100F1000CF93DF931F92CDB7DEB72091D40330E09B
:100F2000322F2227260F371F90E0982F88274983DA
:100F300041E050E0BE016F5F7F4F820F931F0E9420
:100F40007C060F90DF91CF910895CF93DF931F928E
:100F5000CDB7DEB76983DC01ED91FC910280F381AE
:100F6000E02D41E050E0BE016F5F7F4F09950F908B
:100F7000DF91CF910895FC019485FB01848598133E
:100F800003C081E0943008F080E00895CF93DF93B0
:100F90001F92CDB7DEB76983DC01ED91FC91028031
:100FA000F381E02D41E050E0BE016F5F7F4F099576
:100FB0000F90DF91CF9108950895FF920F931F93A3
:100FC000CF93DF93EB01FC01178A168A2A81211146
:100FD00009C02B81211106C02C81211103C02D8154
:100FE000222301F141155105E9F08A01FC01F08C41
:100FF00080E591E00E948D01AE014E5F5F4F24E0DD
:1010000030E06CE070E08F2D0E944D07B8018F2D0D
:101010000E945E0781E090E0DF91CF911F910F91D8
:10102000FF90089580E0F7CFFC01848595850895B1
:10103000FC0184899589089527EC31E0FC01318316
:101040002083FB014089518962897389FC014283B5
:101050005383648375830895DC01ED91FC91048CC6
:10106000F58DE02D099490E080E008958EE00E94D7
:10107000AB03BC01990F880B990B0E94143220E03E
:1010800030E040EA50E40E94733220E030E040E873
:101090005AE30E9473322AE037ED43E25CE30E9498
:1010A000CB33089590E080E00E94960290E080E0CB
:1010B0000C94960290E080E00E94960281E090E01D
:1010C0000C949602CF9380E390E00E9496028FE505
:1010D00094E00E940702892BD1F38FE594E00E94EF
:1010E000E501C82F80930C038FE594E00E9407026E
:1010F000892BD1F38FE594E00E94E50120E03C2F9D
:10110000A901482BCA01CF910895EF92FF920F9346
:101110001F93CF93DF9300D000D000D0CDB7DEB7C0
:10112000DC01AB0118966D917C9119978D919C9182
:101130001197FC012081318161157105B9F0D90148
:101140005096ED91FC91099521E0019709F020E07E
:10115000822F26960FB6F894DEBF0FBECDBFDF916B
:10116000CF911F910F91FF90EF900895F901E684C0
:10117000F78427EC31E03A83298314960D911D9171
:101180002D913C9117970B831C832D833E83BE01C9
:101190006F5F7F4FF701D7CFFC019485992369F0EA
:1011A00080819181DC01ED91FC910688F789E02D29
:1011B000099591E0811101C090E0892F0895DC012B
:1011C0001C961C921C978D919C91009739F0DC0124
:1011D000ED91FC910488F589E02D09940895FC01B6
:1011E000768765870895DC01ED91FC91068CF78D7B
:1011F000E02D099591E089270895862F089581E0D3
:101200008627089521E0FC018485843008F020E0E1
:10121000822F08958F929F92AF92BF92EF92FF928A
:101220000F931F93CF93DF93CDB7DEB7A1970FB680
:10123000F894DEBF0FBECDBF7C01FA01CB0119A22D
:10124000223008F42AE08E010F5D1F4F822E912C70
:10125000B12CA12CBF01A50194010E949A33F90180
:10126000CA016A3074F5605DD8016E938D01232B3D
:10127000242B252B79F790E080E0109789F0FD0171
:1012800001900020E9F73197AF014A1B5B0BD701B2
:10129000ED91FC910280F381E02DB801C701099521
:1012A000A1960FB6F894DEBF0FBECDBFDF91CF91F0
:1012B0001F910F91FF90EF90BF90AF909F908F90F4
:1012C0000895695CD1CFFC0101900020E9F73197C6
:1012D000AF01481B590BBC018EE395E00C94A901AA
:1012E0008F929F92AF92BF92CF92DF92EF92FF9236
:1012F0000F931F93CF93DF937C01EB016C0182E08E
:10130000C80ED11C4701E5E08E0E911C10E000E0F4
:10131000F60141916F0150E070E060E02AE0CE01FB
:101320000E940A095C01E881F9810190F081E02DB9
:101330006EE2CE0109958A0D9B1D080F191FC81476
:10134000D90431F7F701458150E070E060E02AE010
:10135000CE010E940A09800F911FDF91CF911F914A
:101360000F91FF90EF90DF90CF90BF90AF909F9044
:101370008F9008950F931F93CF938C01C62F0E94D7
:101380005F056C2F6460C8010E945F056C2F6B7F46
:10139000C8010E945F0583EC90E00197F1F7CF91BF
:1013A0001F910F9108950F931F93CF93DF938C019B
:1013B000D62FC42F607F642B0E94BA0980E1D89F8A
:1013C000B00111246C2BC801DF91CF911F910F91B7
:1013D0000C94BA09CF93DF93CDB7DEB728970FB639
:1013E000F894DEBF0FBECDBF98E0EDE2F1E0DE0184
:1013F000119601900D929A95E1F7909146059617F6
:1014000008F46FEF262F30E0220F331F41E050E049
:101410004C0F5D1F240F351FF9016081680F606854
:1014200040E08EE395E028960FB6F894DEBF0FBE3D
:10143000CDBFDF91CF910C94D309FB0180819181C5
:101440000E943B2F892B81F081E090E00E94960260
:1014500081E090E00E94960261E087E00E94EA0944
:1014600089EC91E00C94630981E090E00E9496027F
:1014700090E080E00E94960261E087E00E94EA0925
:1014800084ED91E0EFCFFB01808191810E943B2FA1
:1014900021E0009709F420E020933F04892B51F0CC
:1014A0000E945A0861E087E00E94EA0980EE91E01C
:1014B0000C9463090E94520861E087E00E94EA09E7
:1014C0008BEE91E0F5CF41E00E94D30981E090E0FE
:1014D0000895FB01808191810E943B2F21E00097BC
:1014E00009F420E020933E04892B61F061E085E05F
:1014F0000E94E40260E087E00E94EA0987EF91E041
:101500000C94630960E085E00E94E40260E087E0FB
:101510000E94EA0981E092E0F3CFFB018081918192
:101520000E943B2F892B61F061E084E00E94E4027D
:1015300060E087E00E94EA098CE092E00C94630985
:1015400060E084E00E94E40260E087E00E94EA0933
:1015500087E192E0F3CFAF92BF92CF92DF92EF920A
:10156000FF920F931F93CF93DF9300D000D0CDB79E
:10157000DEB78C016B017A0180915E048333E9F45C
:101580005B016801C40ED51EC016D106A9F10E94E8
:101590006A068FE00E947506812F0E947506802FD3
:1015A0000E9475060F5F1F4F80E00E947506F501CF
:1015B00081935F010E946006E7CF843369F50E9442
:1015C0006A0619830A838F2D8F778B83EC8264E000
:1015D00070E0CE0101960E944606A70170E060E02F
:1015E000C6010E949D35E114F10421F0B701C60146
:1015F0000E9446060E946006C7010F900F900F9050
:101600000F90DF91CF911F910F91FF90EF90DF909E
:10161000CF90BF90AF9008950E946A060F3F1105CA
:1016200009F030F419820A831B8263E070E0D1CFA5
:1016300017FD0BC019820A8333E0169507953A957A
:10164000E1F7007E08600B83F0CFC80126E0969595
:1016500087952A95E1F7807E19830A830115104C3E
:1016600018F480618B83E1CF8861FCCFCF93DF9347
:101670001F92CDB7DEB72091D40330E0322F22275E
:10168000260F371F90E0982F882741E050E0BE01D9
:101690006F5F7F4F820F931F0E94AB0A89810F906B
:1016A000DF91CF910895CF93C82F462F61E070E06E
:1016B0000E94880761E070E08C2F0E94360B811138
:1016C000F9CFCF910895CF93C82F80E591E00E9484
:1016D0008D0168E070E08C2FCF910C94530BCF9369
:1016E000C82F80E591E00E948D0160E170E08C2FB1
:1016F000CF910C94530BCF93DF93EC01888D843002
:1017000020F40E946F0B84E0888FDF91CF910895C1
:10171000CF93C82F80E591E00E948D0163E070E0D7
:101720008C2FCF910C94360BCF93DF93EC018C85EB
:101730008430D0F40E94880B843189F0882379F0BA
:10174000883169F021E08C3159F4E881F981008415
:10175000F185E02DCE01099521E0892B09F420E0E7
:10176000822FDF91CF91089580E0FBCFCF92DF925F
:10177000EF92FF92CF93DF93EC018C85843068F475
:101780000E94630B0E9418046B017C018C850E94EF
:10179000880B811109C084E08C87DF91CF91FF9085
:1017A000EF90DF90CF90089561E070E080E090E0EE
:1017B0000E94E5030E941804AB01BC014C195D09AD
:1017C0006E097F098D859E85B0E0A0E04817590716
:1017D0006A077B07D8F28C850E946F0BDCCFCF9312
:1017E000FC01C08D80E591E00E948D0160E270E017
:1017F0008C2F0E94530B62E070E08C2F0E94360BFE
:1018000084FD16C062E070E08C2F0E94360B83FFCF
:101810000AC048E162E070E08C2F0E94880780E0F7
:1018200090E0CF91089580E591E00E948D01E3CF93
:1018300040E162E070E08C2F0E94880781E0F0CFE9
:10184000CF93DF931F92CDB7DEB741E050E0BE01EA
:101850006F5F7F4F90E080E00E94AB0A89810F901C
:10186000DF91CF910895CF93DF93C4E1D0E00E9440
:10187000200C882361F061E070E080E090E00E943D
:10188000E5032197A1F780E0DF91CF91089581E0F2
:10189000FBCF1F93CF93DF931F92CDB7DEB7182FE7
:1018A00080E591E00E948D01812F0E943F0727E093
:1018B000129FF0011124EE5BFB4F228133813770C0
:1018C00041E050E0BE016F5F7F4F820F931F0E9487
:1018D000AB0A89810F90DF91CF911F910895FC0190
:1018E000808D843040F4218D328D232B21F00E9495
:1018F000490C90E008958FEF9FEF0895CF93DF9309
:10190000FC012485243028F08FEF9FEFDF91CF91E9
:101910000895EC010190F081E02D0084F185E02D27
:101920000995892B89F38C850E94490C90E0EECFB4
:10193000DA01E091D403F0E0FE2FEE27E60FF71F67
:1019400090E0982F8827A901BD018E0F9F1F0C944E
:10195000AB0A8F929F92AF92BF92CF92DF92EF929B
:10196000FF921F93CF93DF93CDB7DEB72C970FB6BF
:10197000F894DEBF0FBECDBF20915E0414E0222399
:1019800039F16B017C0180E591E00E948D015E01DF
:1019900027E0A20EB11C450110E063E070E0812F4A
:1019A0000E94360BF40181934F01882349F11F5F98
:1019B000143099F710E0F50181915F018D31D9F074
:1019C0008831C9F08A518230B0F01F5F143099F726
:1019D000812F2C960FB6F894DEBF0FBECDBFDF91DE
:1019E000CF911F91FF90EF90DF90CF90BF90AF907D
:1019F0009F908F90089560E170E0812F0E94530BBB
:101A0000A12EB12C83EE93E00197F1F742E870E04C
:101A100060E0812F0E9488074FEF62E070E0812F25
:101A20000E948807B601C114D10491F4809121016C
:101A30009091220101968115F0EC9F0708F45CC09B
:101A400090932201809321016091210170912201E4
:101A5000812F0E94730786E0E5E3F1E0DE01119635
:101A600001900D928A95E1F7F70183818F778C833E
:101A700084818D8385818E83A7014E5F5F4F24E033
:101A800030E06CE070E0812F0E944D07B601812F9D
:101A90000E945E0726E030E0AE014F5F5F4F66E0D8
:101AA00070E0812F0E944D0761E070E0812F0E945D
:101AB000530B27E02A9DC0012B9D900D11249C0102
:101AC0002E5B3B4F7901F9011182108222E030E058
:101AD000AE01455F5F4F68E270E0812F0E94980C75
:101AE0008B859C85982789279827F7019383828384
:101AF0001682158214826CCF80E090ECA1CFCF9239
:101B0000DF92EF92FF920F931F93CF93DF9300D05A
:101B100000D000D0CDB7DEB78C016B017A01FC019B
:101B2000808D843010F40E946F0B87EC91E09A83D3
:101B30008983F60182819381A481B5818B839C8303
:101B4000AD83BE83B701CE0101960E94A90CF801B6
:101B5000808F8430A0F4F586E486128E118E81E0A9
:101B600026960FB6F894DEBF0FBECDBFDF91CF91A2
:101B70001F910F91FF90EF90DF90CF90089580E03C
:101B8000EFCFAF92BF92CF92DF92EF92FF920F937F
:101B90001F93CF93DF9300D000D000D0CDB7DEB736
:101BA000082F6B0180E591E00E948D019E012F5F5F
:101BB0003F4F7901590110E063E070E0812F0E94EE
:101BC000360BF50181935F01882341F11F5F1430CB
:101BD00099F710E0F70181917F018D31D1F08831C3
:101BE000C1F08A518230A8F01F5F143099F7812F1D
:101BF00026960FB6F894DEBF0FBECDBFDF91CF9112
:101C00001F910F91FF90EF90DF90CF90BF90AF901A
:101C1000089560E170E0812F0E94530BE12EF12CBA
:101C200083EE93E00197F1F7402F70E060E0812FA1
:101C30000E9488074FEF62E070E0812F0E948807C2
:101C4000B601CD2889F4809121019091220101965D
:101C50008115F0EC9F0798F1909322018093210168
:101C60006091210170912201812F0E94730761E030
:101C700070E0812F0E94530B27E02E9DC0012F9D05
:101C8000900D11249C012E5B3B4F7901F9011182CB
:101C9000108222E030E0AE014B5F5F4F68E270E0FF
:101CA000812F0E94980C8D819E81982789279827E3
:101CB000F7019383828316821582148298CF80E085
:101CC00090ECCACFCF92DF92EF92FF921F93CF9307
:101CD000DF93EC017B016A018C85843048F40E941B
:101CE000880B882319F08C850E94630B84E08C8715
:101CF000F70182819381A481B5810097A105B10587
:101D000051F490E080E0DF91CF911F91FF90EF9030
:101D1000DF90CF9008958F3F9F4FAF4FBF4F89F314
:101D200080915E04811103C084E08C87EACF70E06B
:101D300060E081E20E94C10D182F8C87843008F783
:101D400080E591E00E948D01A7014E5F5F4F24E086
:101D500030E06CE070E0812F0E944D07B601812FCA
:101D60000E945E0764E070E0812F0E94530B0E9486
:101D700018046B017C018C850E94880B873109F166
:101D80008C31F9F0882309F4BCCF0E941804AB0110
:101D9000BC014C195D096E097F098D859E85B0E0F7
:101DA000A0E084179507A607B70738F061E070E058
:101DB00080E090E00E94E503DECF8C850E946F0BEF
:101DC000B3CF81E090E09FCF0F931F93CF93DF932A
:101DD000EC018B01888D843010F40E946F0B809190
:101DE0005E04811107C094E0988FDF91CF911F911D
:101DF0000F910895B80182E00E94C10D888F843050
:101E000030F41D870C871A8E198E81E0EECF80E0AA
:101E1000ECCF7F928F929F92AF92BF92CF92DF9240
:101E2000EF92FF920F931F93CF93DF9300D0CDB724
:101E3000DEB7782E8B014A01590122E030E0AE0175
:101E40004F5F5F4F64E270E00E94980CE980FA8077
:101E5000FE24EF24FE24E00EF11E9701377040911E
:101E60005E04072D10E0433309F042C0085F1F4FA6
:101E7000102F0027110F110F110FC901800F911F93
:101E80004733C9F1A9014A0D5B1D4130584098F113
:101E900060E078E06B01C21AD30AA601B4010E9487
:101EA0007C06A5014C195D09B4016C0D7D1DC801AE
:101EB0000E947C06EA0CFB1CF982EA8222E030E0F8
:101EC000AE014F5F5F4F64E270E0872D0E944D07C7
:101ED0000F900F90DF91CF911F910F91FF90EF9096
:101EE000DF90CF90BF90AF909F908F907F9008959C
:101EF000005F1F4FBDCFA501B401DACFEF92FF9273
:101F00001F93CF93DF9300D0CDB7DEB7182F22E019
:101F100030E0AE014F5F5F4F60E270E00E94980CCE
:101F2000E980FA80FE24EF24FE2422E030E0AE01B6
:101F30004F5F5F4F60E270E0812F0E94980C8981B3
:101F40009A81982789279827E816F90689F487E067
:101F5000189FF0011124EE5BFB4FF582E482C7016C
:101F60000F900F90DF91CF911F91FF90EF90089508
:101F70007C01DBCF1F93CF93DF93182F80E591E097
:101F80000E948D01812F0E947E0FEC0163E070E0C2
:101F9000812F0E94360B873121F08C3111F0D0E077
:101FA000C0E0CE01DF91CF911F910895CF93DF93D1
:101FB000EC018C85843060F40E94880B873111F02D
:101FC0008C3131F48C850E94BA0F8115984088F3CA
:101FD000DF91CF910895FC018485843010F40C9436
:101FE000BA0F90E080E008959F92AF92BF92CF9297
:101FF000DF92EF92FF920F931F93CF93DF938C01A9
:102000005B01942EE52EFC01C688D788F08C80E514
:1020100091E00E948D018F2D0E947E0FC92DDE2D33
:102020008C179D0708F4EC019E01A501B6018F2DC8
:102030000E94090FF801868997898C0F9D1F978B45
:10204000868BCE01DF91CF911F910F91FF90EF9082
:10205000DF90CF90BF90AF909F9008958F929F9206
:10206000AF92BF92CF92DF92EF92FF920F931F93A6
:10207000CF936C015B018A01FC01C485C430F0F58B
:102080007A014130584018F0E12C88E0F82E80E5C4
:1020900091E00E948D018C2F0E947E0F4C0163E025
:1020A00070E08C2F0E94360B873111F08C3149F58E
:1020B0008E149F0460F380E591E00E948D019701EA
:1020C000A50170E060E08C2F0E94090F60E270E0D3
:1020D0008C2F0E94530B62E070E08C2F0E94360B15
:1020E00084FD17C063E070E08C2F0E94360B8111D5
:1020F0000BC081E090E0F6019383828310E000E062
:1021000010C0F12CE12CD7CF80E591E00E948D0129
:10211000E2CF40E162E070E08C2F0E948807EF2858
:1021200041F3C801CF911F910F91FF90EF90DF9085
:10213000CF90BF90AF909F908F900895FF920F9394
:102140001F93CF93DF9300D0CDB7DEB7F82E22E0F8
:1021500030E0AE014F5F5F4F66E270E00E94980C86
:1021600009811A8110270127102722E030E0AE01F3
:102170004F5F5F4F66E270E08F2D0E94980C89815F
:102180009A819827892798270817190749F4C801C1
:102190000F900F90DF91CF911F910F91FF900895B5
:1021A0008C01E3CF1F93CF93DF93182F87E0189F05
:1021B000E0011124CE5BDB4F88819981009761F4A7
:1021C00080E591E00E948D01812F0E949E102E815A
:1021D000821B910999838883DF91CF911F91089584
:1021E000FC018485843010F40C94D21090E080E0DF
:1021F00008954F925F927F928F929F92AF92BF927B
:10220000CF92DF92EF92FF920F931F93CF93DF93C2
:1022100000D0CDB7DEB7782E6B014A01A82EB12CC5
:1022200027E0829FC0011124FC01EE5BFB4F7F0180
:102230000081118180E591E00E948D01081519054A
:1022400054F4872D0E949E10F70126818C01021BF9
:102250001109118300830115110529F563E070E070
:10226000872D0E94360B843159F0882349F001E014
:1022700010E08C3111F410E000E011950195110986
:10228000C8010F900F90DF91CF911F910F91FF9098
:10229000EF90DF90CF90BF90AF909F908F907F9006
:1022A0005F904F900895801691060CF4840187E0AA
:1022B0008A9DF0018B9DF00D1124EE5BFB4FE280B7
:1022C000F380C114D10451F12701F7E05F22872D7B
:1022D0000E943F07840D951D20915E04273309F469
:1022E00053C09801240D351D2130384008F44CC0EE
:1022F00020E038E0490184189508A401B6010E9445
:10230000AB0A2601480C591C6801C818D908872D4A
:102310000E943F07A601B2010E94AB0AE00EF11E27
:1023200087E08A9DF0018B9DF00D1124EE5BFB4F41
:10233000F382E28220813181201B310B31832083A3
:102340008681800F912F911D8A3F910510F4232BD8
:10235000F1F487E08A9DF0018B9DF00D1124EE5B76
:10236000FB4F1682F982EA8222E030E0AE014F5F35
:102370005F4F68E270E0872D0E944D0760E470E0D7
:10238000872D0E94530B7CCFA801B601C5CF868351
:1023900077CFCF93DF93FC01218D328D211531054D
:1023A00029F48FEF9FEFDF91CF910895EC01808D9D
:1023B0004217530708F0A9010E94F91018161906D0
:1023C00084F7298D3A8D281B390B3A8F298FEBCF53
:1023D0000F931F93CF93DF931F92CDB7DEB7FC010E
:1023E000218D328D232B41F48FEF9FEF0F90DF91E2
:1023F000CF911F910F9108958C0141E050E0BE01F3
:102400006F5F7F4FFC01808D0E94F910181619062E
:102410005CF7F801818D928D0197928F818F898170
:1024200090E0E4CFCF93DF931F92CDB7DEB741E0CA
:1024300050E0BE016F5F7F4FFC0184850E94F91060
:102440001816190634F4898190E00F90DF91CF912E
:1024500008958FEF9FEFF9CFFC018485843010F44D
:102460000C94F91090E080E008950F931F93CF93A0
:10247000DF9300D0CDB7DEB7FC0124852430E0F433
:102480008C0180E591E00E948D0122E030E0AE01F8
:102490004F5F5F4F60E170E0F80184850E94980C07
:1024A00089819A819827892798270F900F90DF912B
:1024B000CF911F910F91089590E080E0F6CF0F9398
:1024C0001F93CF93DF9300D0CDB7DEB7FC012485F7
:1024D0002430E0F48C0180E591E00E948D0122E03F
:1024E00030E0AE014F5F5F4F64E070E0F80184853B
:1024F0000E94980C89819A819827892798270F90A4
:102500000F90DF91CF911F910F91089590E080E09F
:10251000F6CFDC0187EC91E08D939D9384E0FB0185
:1025200001900D928A95E1F70895EF92FF920F9333
:102530001F93CF93DF9300D000D0CDB7DEB78C01CF
:102540007B01FB0184858430A8F087EC91E0F801E1
:10255000918380831282138214821582C8010F90A6
:102560000F900F900F90DF91CF911F910F91FF90DF
:10257000EF90089580E591E00E948D0124E030E025
:10258000AE014F5F5F4F6CE070E0F70184850E9401
:10259000980CBE016F5F7F4FC8010E948912DECF89
:1025A0000F931F93CF93DF93CDB7DEB728970FB666
:1025B000F894DEBF0FBECDBF8C01D80159964D9166
:1025C0005C915A974115510551F0ED91FC91048CA5
:1025D000F58DE02D70E060E0C8010995EECFF801BF
:1025E000808D0E94D210892BB1F148E050E0BE01ED
:1025F0006F5F7F4FD80158968C910E94F910181682
:102600001906F4F4D801509684E0FE013196019049
:102610000D928A95E1F78D8190E0982F88272E8181
:10262000820F911DF801958B848B8F81282F30E0CC
:10263000322F22278885820F932F911D928F818FB1
:1026400028960FB6F894DEBF0FBECDBFDF91CF91B5
:102650001F910F91089590E080E0F2CF4F925F922A
:102660006F927F928F929F92AF92BF92CF92DF92A2
:10267000EF92FF920F931F93CF93DF93CDB7DEB707
:1026800063970FB6F894DEBF0FBECDBF7C016B0120
:102690003A01FB0120E090E080E06AE031913323D1
:1026A00009F461C040ED430F4A3008F04DC0689F07
:1026B000A001699F500D1124CA01C097830F911D7D
:1026C00037FD9A958F3F910549F340F3F701428119
:1026D0005381648175818091340590913505A09175
:1026E0003605B0913705481759076A077B0709F483
:1026F0000DC28701085F1F4F0E9418046F70772773
:102700007C5FC8010E94E40E813009F004C287ECAE
:1027100091E09A838983F70182819381A481B581B5
:102720008B839C83AD83BE8345E350E0BE016F5F26
:102730007F4FC8010E94DD07892BA9F5D12CC12C40
:10274000C8010E947B0B17C03E3209F0BFCF233077
:1027500009F4BCCFD301A20FB11D12968C932F5F49
:1027600090E080E09BCF233009F0B0CFF301858368
:10277000CC24C394D12CC60163960FB6F894DEBF67
:102780000FBECDBFDF91CF911F910F91FF90EF90C2
:10279000DF90CF90BF90AF909F908F907F906F9081
:1027A0005F904F9008950E941804F7017783668325
:1027B00042E050E0B7016A5F7F4FC8010E94F40F0A
:1027C00081E090E09A83898342E050E0BE016F5F30
:1027D0007F4FC8010E94F40F80E091E09A838983C3
:1027E00042E050E0BE016F5F7F4FC8010E94F40FCE
:1027F0001A82198242E050E0BE016F5F7F4FC8012C
:102800000E94F40F42E050E0BE016F5F7F4FC801AD
:102810000E94F40F42E050E0BE016F5F7F4FC8019D
:102820000E94F40F5601F6018081882301F16501B1
:10283000F60181912F01882311F08E32B1F4460107
:102840008A189B081814190474F48D8641E050E02E
:10285000BE01635F7F4FC8010E94F40FA401B50160
:10286000C8010E94F40F5201DECF6201E1CF1D8644
:1028700041E050E0BE01635F7F4FC8010E94F40F4A
:10288000C12CDD24D394DA82C98242E050E0BE013B
:102890006F5F7F4FC8010E94F40FDA82C98242E065
:1028A00050E0BE016F5F7F4FC8010E94F40FC80166
:1028B0000E94EF0B892B09F441CFF3E0AF2EB12C2E
:1028C000230122E0420E511CD4C0F7014281538102
:1028D00064817581808D918DA28DB38D48175907C4
:1028E0006A077B0709F008C1848D958DC59709F0AB
:1028F00003C181A192A15DEFC52EDD24DA940C976E
:102900000CF4ADC04CE050E0BE016F5F7F4FC801DA
:102910000E94C9118B819C819827892798279A8BBF
:10292000898BF7014681578129813A8142175307E4
:1029300009F0E7C097FFE5C08F7092703BEFC32EA0
:10294000DD24DA94892B09F08AC06F80788476249C
:10295000672476242AEFC22EDD24DA9461147104F0
:1029600009F47DC0D12CC12C8D819E8198278927A7
:102970009827C816D906F8F441E050E0BE01635F1D
:102980007F4FC8010E94C9114D85442331F050E0AA
:1029900070E060E0C8010E94C9118D858111ECCF03
:1029A00044E050E070E060E0C8010E94C911FFEF10
:1029B000CF1ADF0AD9CF912C812C41E050E0BE0123
:1029C0006D5E7F4FC8010E94C9114B89842F807CA6
:1029D00009F06CC0442331F050E070E060E0C801C1
:1029E0000E94C9118B898111E8CF42E050E0BE01FD
:1029F000615F7F4FC8010E94C91142E050E0BE01F3
:102A0000635F7F4FC8010E94C91144E050E070E04D
:102A100060E0C8010E94C91142E050E0BE016F5E53
:102A20007F4FC8010E94C9118F85988949895A89A9
:102A30008115914009F043C0CD84DE84DC24CD248F
:102A4000DC2481E0C816D104D1F54115544009F0C9
:102A50004AC044E050E0B201C8010E94C91121E01F
:102A6000A21AB10809F46CCEFFEFCF16DF0609F009
:102A700067CE0E9418043B014C01C8010E94D0128D
:102A8000181619060CF421CF0E941804661977094C
:102A900088099909693873418105910548F562E310
:102AA00070E080E090E00E94E503E7CF41E050E075
:102AB00070E060E0C8010E94C9111B8A93CF5427BF
:102AC0004527542770E060E0C8010E94C911FFEF5C
:102AD0008F1A9F0A6814790409F06FCF96EFC92EF8
:102AE000DD24DA94BCCFE7EFCE2EDD24DA94B7CF25
:102AF000CC24CA94DC2CB3CF6EEFC62EDD24DA943E
:102B0000AECF4CEFC42EDD24DA94A9CF8EEFC82EC1
:102B1000DD24DA9430CED12CC12C2DCECF92DF9291
:102B2000EF92FF920F931F93CF93DF93CDB7DEB752
:102B3000AF970FB6F894DEBF0FBECDBF7C016A0120
:102B400007EC11E01A8309831C861B8688EE93E04C
:102B5000A0E0B0E08D879E87AF87B88B8FE391E0D0
:102B60009A878987188F0F8B198E1A8E1B8E1C8E51
:102B700084E089A31BA70AA71CA61DA61EA61FA644
:102B80008091280590912905A0912A05B0912B05E7
:102B90008EA39FA3A8A7B9A78B839C83AD83BE8375
:102BA00018861F82AE01465D5F4FCE0101960E94DE
:102BB0002E1381309105B1F4D701ED91FC91048879
:102BC000F589E02D1DA30CA38CA59DA5AEA5BFA5E1
:102BD0008EA39FA3A8A7B9A7A601BE016C5D7F4FD6
:102BE000C7010995AF960FB6F894DEBF0FBECDBFF3
:102BF000DF91CF911F910F91FF90EF90DF90CF90D9
:102C00000895CF92DF92EF92FF920F931F93CF938D
:102C1000DF93CDB7DEB7AF970FB6F894DEBF0FBE28
:102C2000CDBF8C016B017A0187EC91E09A83898397
:102C30001B821C821D821E821C861B8648EE53E06E
:102C400060E070E04D875E876F87788B2FE331E01F
:102C50003A872987988F8F8B198E1A8E1B8E1C8E20
:102C600024E029A39BA78AA71CA61DA61EA61FA613
:102C7000D8011C968C91843060F40E94880B8823C4
:102C800021F0F80184850E94630B84E0D8011C9632
:102C90008C938091280590912905A0912A05B091E7
:102CA0002B058EA39FA3A8A7B9A78B839C83AD8375
:102CB000BE8318861F82AE01465D5F4FB601CE010E
:102CC00001960E942E130097C1F0D801ED91FC915E
:102CD0000684F785E02D87EC91E09DA38CA38CA55D
:102CE0009DA5AEA5BFA58EA39FA3A8A7B9A7A70121
:102CF000BE016C5D7F4FC8010995AF960FB6F89481
:102D0000DEBF0FBECDBFDF91CF911F910F91FF901E
:102D1000EF90DF90CF9008957F928F929F92AF9225
:102D2000BF92CF92DF92EF92FF920F931F93CF93B8
:102D3000DF93CDB7DEB7A6970FB6F894DEBF0FBE10
:102D4000CDBF8C01762E942E852E20E2A22ECE01B0
:102D500001967C01DC01EA2D1D92EA95E9F76801F4
:102D6000F3E4CF0ED11C87EC91E09AA389A38FEFF7
:102D70008BA38CA38DA38EA343E450E0BE016F5DB3
:102D80007F4FC6010E94DD07019609F4BFC081E0B4
:102D900089838A8386E0B82EBB821C82D801149670
:102DA0006D917D918D919C9117970E9452346D8306
:102DB0007E838F83988789869A8680E890E09C87B7
:102DC0008B874CE150E0B701C6010E94F40FFE0171
:102DD00037968AE1DF011D928A95E9F74801B8E04C
:102DE0008B0E911CF401D70101900D92BA94E1F77A
:102DF00040E150E0B701C6010E94F40FF7011192C3
:102E0000AA94E9F796E0A92EB12C40E250E0B70170
:102E1000C6010E94F40FF1E0AF1AB108B1F783E6E2
:102E2000898392E89A8393E59B838C8385E38D83E2
:102E300081E08E837F829DE3988797E099878A87D8
:102E400086E0F401DE011B9601900D928A95E1F770
:102E50008CE0898B8A8B63E272E0CE0143960E94FC
:102E6000AD35D8011B966C91CE0149960E94900118
:102E7000F8016485CE014B960E949001D8011D9601
:102E80006C91CE014D960E9490014EE150E0B70149
:102E9000C6010E94F40FB3E07B121EC082E3898357
:102EA00084E08A83F80196859B8397859C8390892B
:102EB0009D8391899E8396E39F838887828D8987EE
:102EC000838D8A87848D8B87858D8C874CE050E03D
:102ED000B701C6010E94F40F87E3898386E08A83E5
:102EE00091E09B8393E09C838D838FE08E838AE3C4
:102EF0008F838BE388878FEF898749E050E0B701A4
:102F0000C6010E94F40FC6010E94EF0BA6960FB6F1
:102F1000F894DEBF0FBECDBFDF91CF911F910F910F
:102F2000FF90EF90DF90CF90BF90AF909F908F90E9
:102F30007F9008950F931F93CF93DF93EC01FB01D4
:102F400001900020E9F78F01061B170B8A819B81F6
:102F5000A801480F591F2C813D812417350768F0BF
:102F600028813981A801820F931F0E9494354A81DC
:102F70005B81400F511F5B834A83DF91CF911F918B
:102F80000F9108956115710599F4DC01ED91FC91A3
:102F9000119712962D913C911397A9014F5F5F4FA6
:102FA00013965C934E931297E20FF31F10820895CD
:102FB0000C949A170F931F93CF93DF93EC018881A2
:102FC0009981009759F02A813B812617370730F005
:102FD00081E0DF91CF911F910F9108958B016F5F79
:102FE0007F4F0E94CA34009759F0998388831B83CE
:102FF0000A832C813D81232B59F7FC011082E8CFF5
:1030000080E0E7CF85ED8093BC008091990390919B
:103010009A03A0919B03B0919C030796A11DB11D3B
:1030200023E0B695A795979587952A95D1F7209196
:10303000BC0024FD03C010929703089540919903AA
:1030400050919A0360919B0370919C03452B462BF2
:10305000472B69F30097A105B10541F025E32A95B7
:10306000F1F700000197A109B109E1CF8091980320
:103070000C94B9043F924F925F926F927F928F921D
:103080009F92AF92BF92CF92DF92EF92FF920F93F7
:103090001F93CF93DF93CDB7DEB7EA970FB6F894BF
:1030A000DEBF0FBECDBF7C012A013B0169010E943A
:1030B00018044B015C0187010D5B1F4FC8010E9482
:1030C000D012181619069CF00E9418046819790984
:1030D0008A099B09461657066806790608F466C1F0
:1030E00062E370E080E090E00E94E503E7CF42E217
:1030F00050E0BE016F5F7F4FC8010E94C9118981F6
:103100008230D1F0312C832DEA960FB6F894DEBFD1
:103110000FBECDBFDF91CF911F910F91FF90EF9028
:10312000DF90CF90BF90AF909F908F907F906F90E7
:103130005F904F903F900895F8018489958983347A
:10314000910501F76D817E818F8198850E945234AF
:103150004B015C01F60180829182A282B38246E03B
:1031600050E0B701685F7F4FCE014D960E948735D2
:10317000892B41F6F70180819181A281B381881664
:103180009906AA06BB0608F4BDCF84819581A68165
:10319000B78188159905AA05BB0508F4B3CF8989BD
:1031A0009A89AB89BC8986879787A08BB18B4EECB7
:1031B00050E070E060E0C8010E94C911312CC701E5
:1031C000829698AB8FA7F701B696FAABE9AB089653
:1031D0009CAB8BAB67019AE1C90ED11CBD96FEABCF
:1031E000EDABC701429698AF8FABFD97FAAFE9AF51
:1031F0004701FEE18F0E911CF801818D928D18160A
:1032000019060CF080CFC8010E94E81183339105A4
:1032100009F4B2C014F58130910509F464C044F496
:10322000892B51F3C8010E94E811AC01552775C0E4
:103230008330910509F462C00697A1F7C8010E9486
:10324000E811B82E44E050E0B401C8010E94C91151
:10325000EB2DE450FF0BAF0160C08A33910509F4F8
:103260005FC084F585339105B1F1C697D9F6C801E1
:103270000E94E8115C01B601CE0189960E94891274
:103280008BA59CA5ADA5BEA5892B8A2B8B2BB1F058
:10329000EDA9FEA94080518062807380B601CE0105
:1032A00083960E9489128DA19EA1AFA1B8A5A50108
:1032B000481659066A067B0609F0B8CF44E050E08C
:1032C000B60118C08B33910509F440C08F3F9105BA
:1032D00009F492CFA7CFC8010E94E811C8010E944B
:1032E000E811382E89CFC8010E94E81144E050E06F
:1032F0006FA978ADC8010E94C9117ECFC8010E9494
:10330000E811B82E44E050E069AD7AADC8010E94E2
:10331000C9118B2D8450990BAC0170E060E0EACFAD
:10332000C8010E94E81144E050E069A97AA9C801E7
:103330000E94C911F70166A177A180A591A50E94FD
:10334000523466A377A380A791A756CFC8010E94E5
:10335000E81144E050E06BA97CA9C8010E94C911A2
:10336000F70162A573A584A595A50E94523462A7B2
:1033700073A784A795A740CFC8010E94E81144E035
:1033800050E06FA578A9C8010E94C911F70162A198
:1033900073A184A195A10E94523462A373A384A354
:1033A00095A366A777A780AB91AB26CF33243A9439
:1033B000AACE0F931F93CF93DF93CDB7DEB7289795
:1033C0000FB6F894DEBF0FBECDBF8C01CB014AE033
:1033D000BE016F5F7F4F0E94892FBE016F5F7F4FDD
:1033E000C8010E949A1728960FB6F894DEBF0FBE48
:1033F000CDBFDF91CF911F910F9108953F924F92D2
:103400005F926F927F928F929F92AF92BF92CF9274
:10341000DF92EF92FF920F931F93CF93DF93CDB77D
:10342000DEB7A1970FB6F894DEBF0FBECDBF5C012B
:103430000DB71EB719A308A360E070E0CB010E948E
:10344000E503D50191968D919C919297912C0297CD
:1034500009F498C090968C9190978F5F90968C937A
:1034600090975E962D913C91232B19F0992493947B
:1034700082C08330D8F7F501828593850E94CC08FD
:10348000882309F43EC38E010F5F1F4F3801D50119
:103490001A96ED91FC9180819181DC01ED91FC9176
:1034A0000084F185E02D0995181619060CF029C342
:1034B000D5011A96ED91FC9145E050E0BE01695EA0
:1034C0007F4F808191810E942404009701F305972A
:1034D00009F04AC0888D998D982789279827998F58
:1034E000888FEA8CFB8CFE24EF24FE24FB8EEA8E70
:1034F000892BD1F18F8981116AC00E941804F501CE
:10350000608B718B828B938B21A132A14A8D5B8D55
:10351000232B09F057C0288D398D2130310509F052
:1035200051C049305105E1F0483C510519F0443093
:103530005105D1F4D50158966D937D938D939C934D
:103540005B97E1E0F0E09296FC93EE939197C501D2
:103550000E94132460E070E0CB010E94E50397CF46
:1035600083E090E092A381A3D5011A968D919C915E
:103570000E94DF08912CD50190968C9190978150F4
:1035800090968C93892DE8A1F9A10FB6F894FEBF0F
:103590000FBEEDBFA1960FB6F894DEBF0FBECDBF34
:1035A000DF91CF911F910F91FF90EF90DF90CF901F
:1035B000BF90AF909F908F907F906F905F904F9053
:1035C0003F9008954530510509F061CFCDCFF50109
:1035D00082859385F1E0EF16FF0640F0D5019296C3
:1035E0001C921E9291970E94DF0851CF8DB69EB615
:1035F00097012F5F3F4FEDB7FEB7E21BF30B0FB6FE
:10360000F894FEBF0FBEEDBF0DB71EB70F5F1F4F83
:10361000A701B801DC018D919C910E9424048E15B4
:103620009F0509F05FC0EA8DFB8DE00FF11F10824E
:103630000E941804F501608B718B828B938B8F89AC
:10364000843109F4ABC0E8F48F3009F4A7C08131AC
:1036500009F43AC2863009F04CC2488D598DD12CFC
:10366000C12CF12CE12C08EC10E030E020E060E00F
:10367000C5010E94741E0FB6F8949EBE0FBE8DBE8B
:1036800006CF8932C9F08733B1F38D3109F031C2E9
:10369000D50181A192A1892B01F7E1E0F0E092969A
:1036A000FC93EE939197C5010E94132460E070E0B3
:1036B000CB010E94E503D1CF86859785892B39F40C
:1036C00080E490E00E94722DF50197878687EA8C4E
:1036D000FB8CE00EF11E1A830983FC82EB820E152F
:1036E0001F0530F00FB6F8949EBE0FBE8DBE3CCFC6
:1036F00040E450E0B801D5011E968D919C910E9446
:10370000B435D5011E96ED91FC9117AEC3010E9410
:10371000F123FC018081918100E510E08E159F0569
:1037200060F489819A810097A9F12B813C818217ED
:10373000930780F50E94592F8B01D5011A968D9120
:103740009C910E94DF08D5011A96ED91FC911B9780
:103750001E968D919C911F97918780871387028772
:1037600092961C921E9291970E941804DC01CB0144
:1037700088589341A109B109F501848B958BA68BDB
:10378000B78B808B918BA28BB38B808F918FA28F05
:10379000B38F71CF60E070E0CB01CECF888D998D73
:1037A000D5015F969C938E935E974A8C5B8C6801E3
:1037B000C40CD51C1D8F0C8FDF8ECE8E0C151D05F5
:1037C00008F013C1F801E080F180CE014C960E9410
:1037D000F123DC018D919C918C159D0508F005C1AC
:1037E0008C8D9D8DFC012081213459F401960E941D
:1037F0003B2F4EE0342E380E069744F033243A9493
:1038000005C0CE014C960E940424382EF6E7EF1630
:10381000F2E7FF0609F406C138F531E6E31632E7B0
:10382000F30609F4E6C044E6E41642E7F40609F4B8
:1038300078C050E7E5165DE6F50609F037C18C8DD6
:103840009D8D8C159D0508F0D0C0FC012081213490
:10385000A9F501960E943B2F3EE0F32EF80E069745
:1038600094F1FF24FA942FC084E6E81687E7F8065F
:1038700009F4A2C096E7E91697E7F90609F4E9C04A
:10388000A1E6EA16A7E7FA0609F010C1CE014C96A8
:103890000E94F123DC018D919C918C159D0508F00F
:1038A000A4C061E0832D0E941203CE014C960E94B9
:1038B0000424BC01832D0E944E0397C0CE014C9678
:1038C0000E940424F82ECE014C960E94F1230C8D08
:1038D0001D8D6AE272E0C8010E94A43560E0892B68
:1038E00079F06DE272E0C8010E94A435892B39F0AD
:1038F00061E372E0C8010E94A435892B49F461E0BC
:103900008F2D0E941203CE014C960E94F12397CF77
:1039100065E372E0C8010E94A435892BA1F762E03B
:10392000EFCF7A8A698A1C8A1B8A00E110E01E8B1D
:103930000D8B68E372E0CE0141960E949A17032D29
:1039400010E0B801CE0141960E94D919F801E45D5A
:10395000FD4F8491F801E85EFD4FF4900C5F1D4F20
:10396000F801049160E070E0002389F081110E9469
:10397000BB02E02FF0E0EE0FFF1FE650FE4FA591D7
:10398000B491EC91FE2261E070E009F460E0CE01B8
:1039900041960E94D9190B891C8901501109298966
:1039A0003A89D12CC12CF12CE12C50E040E064E1AB
:1039B000C5010E94741E19C0CE014C960E94F123CD
:1039C000DC018D919C918C159D0578F461E0832D2F
:1039D0000E941203CE014C960E94042461E0892BC0
:1039E00009F460E0832D0E94E402F501178E168E23
:1039F00042CE7A8A698A1C8A1B8AE0E1F0E0FE8B5B
:103A0000ED8B6BE372E0CE0141960E949A17632D15
:103A100070E0CE0141960E94D919832D0E94AB031C
:103A2000BC01B5CF3982BFE1B315F8F2E32DF0E068
:103A3000EE0FFF1FE05CFD4F2591349121153105FC
:103A4000A1F2E1E02C383E0781F2C301F9010995AA
:103A5000CCCFCE014C960E94F1238C8D9D8D9C0184
:103A6000201B310B421A530A9A8389835C824B8252
:103A70005E824D82398AFFE1F31508F4B6CFE32D5B
:103A8000F0E0EE0FFF1FE058FD4F25913491211516
:103A9000310509F4AACF01E02B38300709F4A5CF8E
:103AA000B301CE014196F90109959FCFD5015E96EC
:103AB0004D915C91D12CC12CF12CE12C02E010E055
:103AC00030E020E060E074CF8A8D9B8D800F911FE5
:103AD0001A8309839C838B830817190708F0CBCDC1
:103AE000C3010E94F123D5015F961C921E925E973E
:103AF000C2CDF50112A211A2828593850E94DF0832
:103B0000BACD0E9418042B013C01F50182859385F2
:103B10000E94CC08D50191962D913C912130310520
:103B200009F05EC0F501811109C0408E518E628E90
:103B3000738E12A211A2828593851ACD80899189F4
:103B4000A289B38993018201081B190B2A0B3B0B35
:103B5000D901C801893116EF9107A105B10548F7D0
:103B6000893C9F4AA105B10590F484899589A6896D
:103B7000B78993018201081B190B2A0B3B0BD90152
:103B8000C801893C9F4AA105B10508F46FCCF50135
:103B9000808D918DA28DB38D93018201081B190B2D
:103BA0002A0B3B0BD901C80181379741A105B1050B
:103BB00008F45CCCD12CC12CF12CE12C10E000E0FD
:103BC00030E020E050E040E066E0C5010E94741E55
:103BD000D50158964D925D926D927C925B9746CC42
:103BE000232B09F043CCF501408D518D628D738DEF
:103BF00093018201041B150B260B370BB901A80199
:103C0000882381F0413757416105710508F42ECCB6
:103C1000828593850E94DF08D50192961C921E92A0
:103C20009197A8CC493853416105710508F41ECC21
:103C3000828593850E94DF08D5011A960D911C910B
:103C4000F80162857385C8010E948508D8011C9619
:103C50008C931C9781110DC01A968D919C91803583
:103C6000910599F460E97FE1C8010E948508F80197
:103C70008487F8019484911014C0D50158964D9210
:103C80005D926D927C925B9776CC80399F4189F7EB
:103C900060E570E0C8010E948508D8011C968C93ED
:103CA000E8CF81E090E0F501958F848F24853585FC
:103CB000F90101900020E9F731978F01021B130BE6
:103CC000D12CC12CF12CE12C41E050E06DE1C5017B
:103CD0000E94741EF50184899589A689B789808F11
:103CE000918FA28FB38F47CC2F923F924F925F92CA
:103CF0006F927F928F929F92AF92BF92CF92DF92FC
:103D0000EF92FF920F931F93CF93DF93CDB7DEB760
:103D1000C854D1090FB6F894DEBF0FBECDBF4C0119
:103D200068AF5AAF49AF27963FAF2EAF279721967E
:103D30001FAF0EAF21972996FFAEEEAE29972396BF
:103D4000DFAECEAE2397DC011A968D919C910E9436
:103D5000CC08882309F4BBC1B8ADBB2351F0B63001
:103D600041F0BD3131F0F40181A192A1019709F038
:103D7000AEC188AD8F508630A0F5D40154964D91D8
:103D80005D916D917C9157975096CD90DD90ED901F
:103D9000FC905397C416D506E606F70610F46A01A0
:103DA0007B01B2E4CB0ED11CE11CF11C0E94180473
:103DB000A7019601261B370B480B590BDA01C901E5
:103DC000B7FDAAC0C4010E94FE190E941804A701F1
:103DD0009601261B370B480B590BDA01C901B7FFB7
:103DE000F1CFF40180819181019709F0B7C082E0A1
:103DF00090E0918380832281338144815581668163
:103E0000778180859185A0E0FE017A960E94B83482
:103E100009F477C1FBABEAAB1DAA1CAA88E190E0CC
:103E20009FAB8EAB68E272E0CE01C2960E949A17F9
:103E3000D40112964C90129713965C901397149697
:103E40006C90149715967C9015971696BC91BBAF05
:103E5000F401F781FCAFD40118962C9018971996AD
:103E60003C90198E9201A3016BAD7F2FC101A0E0A0
:103E70000E94B83409F459C0FE0179962596FFAF27
:103E8000EEAF259727E130E03EAF2DAF8AE0A82EB8
:103E9000B12CC12CD12CE12CF12C00E010E09201CE
:103EA000A3016BAD7CADC1010E945934F901E05C06
:103EB000FD4F80812596AEADBFAD25978E9325969B
:103EC000BFAFAEAF2597EDADFEAD3197FEAFEDAF15
:103ED0009AE0A92EB12CC12CD12CE12CF12C00E0C0
:103EE00010E09201A3016BAD7CADC1010E945B3477
:103EF00029013A016BAF7CAF1C01A0E00E94B834ED
:103F000021F04DAD5EAD452B09F66DAD7EAD6C0F6C
:103F10007D1F6E5F7F4F0EC0D40190968C918111F2
:103F200060CFC4010E94FE195CCF80E3888FBE0180
:103F3000685E7F4FCE01C2960E94C2170CA91DA9D0
:103F4000015011092AA93BA9D12CC12CF12CE12C3B
:103F500050E040E065E1C4010E94741E29AD3AAD15
:103F6000232BB9F4D4015E960D90BC91A02DBAAF6D
:103F7000A9AFAB2B71F4F401848D958D019609F4F2
:103F8000D5C0958F848FF401048CF58DE02DFAAFA8
:103F9000E9AF27962EAD3FAD279721960EAD1FAD09
:103FA00021970B5F1F4F232B11F405E010E029969A
:103FB0004EAD5FAD299790E080E0452B21F0239630
:103FC0008EAD9FAD2397080F191F58AD598389AD4A
:103FD0009AAD9827892798279B838A8321968EAD4F
:103FE0009FAD21972396AEADBFAD23978A0F9B1F40
:103FF0009827892798279D838C83D4011A96ED9161
:10400000FC9180819181DC01ED91FC910280F38132
:10401000E02D45E050E0BE016F5F7F4F09957C01C8
:1040200060E070E0CB010E94E503B8ADBB2309F46A
:1040300044C02196EEADFFAD2197EF2BE1F0D40106
:104040001A96ED91FC9180819181DC01ED91FC91BA
:104050000280F381E02D21964EAD5FAD219727962A
:104060006EAD7FAD27970995E80EF91E60E070E010
:10407000CB010E94E5032396EEADFFAD2397EF2B16
:10408000E1F0D4011A96ED91FC9180819181DC01DF
:10409000ED91FC910280F381E02D23964EAD5FAD52
:1040A000239729966EAD7FAD29970995E80EF91EE5
:1040B00060E070E0CB010E94E503E016F106D9F163
:1040C000F40112A211A2828593850E94DF08C85BC9
:1040D000DF4F0FB6F894DEBF0FBECDBFDF91CF919B
:1040E0001F910F91FF90EF90DF90CF90BF90AF9016
:1040F0009F908F907F906F905F904F903F902F9008
:104100000895FA83E9831C821B8284E090E09E83F9
:104110008D836EE372E0CE0101960E949A170B81A7
:104120001C810150110929813A810ECF81E090E074
:10413000958F848F28CF0E941804D40154966D93D4
:104140007D938D939C935797C2CFCF92DF92EF923E
:10415000FF920F931F93CF93DF93CDB7DEB7C6586F
:10416000D1090FB6F894DEBF0FBECDBF8C01CE01D2
:104170000196CF57DF4F99838883C158D040CD57E0
:10418000DF4F19821882C358D04080E890E0CB57A7
:10419000DF4F99838883C558D04064E672E0CE0132
:1041A0008F579F4F0E949A1766E070E0CE018F579D
:1041B0009F4F0E94D919B801CE018F579F4F0E947F
:1041C000C217CD57DF4F08811981C358D040015025
:1041D0001109CF57DF4F28813981C158D040D12CE8
:1041E000C12CF12CE12C50E040E064E18CEF95E033
:1041F0000E94741ECA57DF4F0FB6F894DEBF0FBE81
:10420000CDBFDF91CF911F910F91FF90EF90DF9085
:10421000CF900895CF92DF92EF92FF920F931F936A
:10422000CF93DF93CDB7DEB7C658D1090FB6F89458
:10423000DEBF0FBECDBF7C018B01CE010196CF57F3
:10424000DF4F99838883C158D040CD57DF4F198203
:104250001882C358D04080E890E0CB57DF4F998355
:104260008883C558D04064E672E0CE018F579F4FD7
:104270000E949A17B701CE018F579F4F0E94D919FC
:10428000B801CE018F579F4F0E94D919CD57DF4FEC
:1042900008811981C358D04001501109CF57DF4F11
:1042A00028813981C158D040D12CC12CF12CE12C6E
:1042B00050E040E064E18CEF95E00E94741ECA5724
:1042C000DF4F0FB6F894DEBF0FBECDBFDF91CF91A9
:1042D0001F910F91FF90EF90DF90CF9008958F92F4
:1042E0009F92AF92BF92CF92DF92EF92FF920F9385
:1042F0001F93CF93DF93CDB7DEB7C75AD1090FB65F
:10430000F894DEBF0FBECDBF0E9436086B017C0162
:10431000CE0101964C01CE55DF4F99838883C25A56
:10432000D040CC55DF4F19821882C45AD04020E8C3
:10433000A22EB12CCA55DF4FB982A882C65AD040EE
:1043400064E672E08F559F4F0E949A1761E070E01B
:10435000CE018E559F4F0E94D9198E010F571F4FC6
:1043600023E045E0C701B6010E94542DB801CE01FB
:104370008E559F4F0E949A17CC55DF4F08811981A7
:10438000C45AD04001501109CE55DF4F28813981E0
:10439000C25AD040D12CC12CF12CE12C50E040E08D
:1043A00064E18CEF95E00E94741E0E9462088C010B
:1043B000CE55DF4F99828882C25AD040CC55DF4F0C
:1043C00019821882C45AD040CA55DF4FB982A882D8
:1043D000C65AD04064E672E0CE018E559F4F0E94CF
:1043E0009A1763E070E0CE018E559F4F0E94D91955
:1043F0004AE0BE016F577F4FC8010E94B12FBE0136
:104400006F577F4FCE018E559F4F0E949A17CC5504
:10441000DF4F08811981C45AD04001501109CE558F
:10442000DF4F28813981C25AD04050E040E064E13A
:104430008CEF95E00E94741EC955DF4F0FB6F894BB
:10444000DEBF0FBECDBFDF91CF911F910F91FF90C7
:10445000EF90DF90CF90BF90AF909F908F90089596
:104460001F920F920FB60F9211242F933F934F93E9
:104470005F936F937F938F939F93AF93BF93EF93CC
:10448000FF938FE594E00E942702FF91EF91BF9187
:10449000AF919F918F917F916F915F914F913F91DC
:1044A0002F910F900FBE0F901F9018951F920F9293
:1044B0000FB60F9211242F938F939F93EF93FF9337
:1044C000E0916F04F09170048081E0917504F091A7
:1044D000760482FD1BC09081809178048F5F8F737A
:1044E00020917904821741F0E0917804F0E0E15ADC
:1044F000FB4F958F80937804FF91EF919F918F915F
:104500002F910F900FBE0F901F9018958081F4CFC0
:104510001F920F920FB60F9211242F933F938F93F8
:104520009F93AF93BF938091C0039091C103A091DB
:10453000C203B091C3033091BF0323E0230F2D3793
:1045400058F50196A11DB11D2093BF038093C003B0
:104550009093C103A093C203B093C3038091C4039B
:104560009091C503A091C603B091C7030196A11D08
:10457000B11D8093C4039093C503A093C603B09369
:10458000C703BF91AF919F918F913F912F910F9052
:104590000FBE0F901F90189526E8230F0296A11DBD
:1045A000B11DD2CF1F920F920FB60F9211242F93ED
:1045B0003F934F935F936F937F938F939F93AF93AB
:1045C000BF93EF93FF938091B900887F803609F401
:1045D0004AC0F0F5883209F4A7C018F5803109F413
:1045E0009BC0B8F4882309F4F9C0883009F494C05A
:1045F000FF91EF91BF91AF919F918F917F916F91BB
:104600005F914F913F912F910F900FBE0F901F9090
:104610001895883109F488C0803251F7809395034A
:1046200014C0803409F49DC040F48033B9F388335A
:10463000F9F68093950385ECB0C0803509F485C008
:10464000883509F496C0883499F60E940218D0CFB4
:10465000883909F48CC038F5883729F050F4883649
:1046600011F0803729F683E080939703109270034E
:1046700057C0883809F47BC0803919F0803809F0B8
:10468000B7CF80917003803208F071C0E091700361
:1046900081E08E0F809370038091BB00F0E0E05BBF
:1046A000FC4F80833DC0803B39F0E0F4803A09F450
:1046B00079C0883A09F09CCF84E0809397031092E8
:1046C0004F0310924E03E091CA03F091CB0309957A
:1046D00080914E0381110FC081E080934E031092B0
:1046E0002E0309C0803C09F4A6CF883C09F4A3CF6F
:1046F000883B09F07DCFE0914F0381E08E0F8093DE
:104700004F03F0E0E25DFC4F80818093BB0090910D
:104710004F0380914E0329C0809172038093BB00A8
:1047200085EC8093BC0064CF9091940380919303B7
:10473000981758F5E091940381E08E0F80939403CD
:10474000F0E0ED58FC4F8081E9CFE091940381E0E7
:104750008E0F809394038091BB00F0E0ED58FC4FE6
:10476000808390919403809193039817C8F285E811
:10477000D8CFE091940381E08E0F809394038091D1
:10478000BB00F0E0ED58FC4F8083809196038111CF
:104790005CCF81E08093710384EA8093BC00109227
:1047A000970326CF85EC8093BC00109297038091ED
:1047B0007003803230F4E0917003F0E0E05BFC4F76
:1047C00010826091700370E0E091C803F091C9031A
:1047D00080E593E00995109270030ACF109295033B
:1047E00034CFDC01ED91FC911197309761F0129676
:1047F0002D913C911397E217F30728F401900020C4
:10480000E9F7ED93FC930895FC0180819181009775
:1048100039F0228133818217930710F40C943B2FD7
:1048200090E080E00895AF92BF92CF92DF92EF9236
:10483000FF920F931F93CF93DF93CDB7DEB7C05C8A
:10484000D1090FB6F894DEBF0FBECDBF5C01CE011B
:1048500085589F4FC554DF4F99838883CB5BD040E9
:10486000C354DF4F19821882CD5BD04080E490E0C2
:10487000C154DF4F99838883CF5BD04061E572E0FC
:10488000CE0185549F4F0E949A1766E572E0CE01D3
:1048900085549F4F0E94C2174AE750E06AE671E0D4
:1048A000CE0101960E94802FC354DF4FC880D9806B
:1048B000CD5BD040C554DF4FE880F980CB5BD04062
:1048C0000AE710E09E012F5F3F4F50E040E061E1BA
:1048D000C5010E94741EC054DF4F0FB6F894DEBFAE
:1048E0000FBECDBFDF91CF911F910F91FF90EF9041
:1048F000DF90CF90BF90AF900895EFE5F4E0138282
:10490000128288EE93E0A0E0B0E084839583A683D2
:10491000B78329E631E03183208325EC30E0358709
:10492000248724EC30E03787268720EC30E0318B79
:10493000208B21EC30E0338B228B22EC30E0358B66
:10494000248B26EC30E0378B268B118E128E138E43
:10495000148EECEFF4E01382128284839583A68395
:10496000B7838BE791E091838083E8E0F5E087EC03
:1049700091E0918380831282138214821582EEE08B
:10498000F5E0918380831282138214821582E4E120
:10499000F5E0918380831282138214821582EAE10A
:1049A000F5E0918380831282138214821582E0E203
:1049B000F5E0918380831282138214821582ECE2E7
:1049C000F5E0918380831282138214821582E6E2DD
:1049D000F5E0918380831282138214821582E2E3D0
:1049E000F5E0918380831282138214821582E8E3BA
:1049F000F5E0918380831282138214821582E1E4B0
:104A0000F6E0918380831282138214821582E2E39E
:104A1000F6E01382128229E931E03183208324E019
:104A2000248728EE33E036872587A5E2B6E0139683
:104A30009C938E93129714961D921D921D921C9218
:104A4000179719961C921E9218971B961C921E92ED
:104A50001A971C961C921C971196FC93EE9340E7B4
:104A600057E160E070E04483558366837783ECEF21
:104A7000F5E011821082128213821482158216824E
:104A8000178210861186B387A2871586148617862B
:104A90001686108A118A128A138A148A158A168A2F
:104AA000178A108E118E128E138E158E148E178EFD
:104AB000168E10A212A211A28FEF9FEF9093FB050A
:104AC0008093FA05EEE3F5E0138212828DE891E01F
:104AD0009183808387E2848380E1818782E082877B
:104AE00013860895CF93DF93CDB7DEB7E3970FB664
:104AF000F894DEBF0FBECDBF789484B5826084BDCC
:104B000084B5816084BD85B5826085BD85B58160D1
:104B100085BD80916E00816080936E00109281004F
:104B2000809181008260809381008091810081600A
:104B300080938100809180008160809380008091CB
:104B4000B10084608093B1008091B0008160809357
:104B5000B00080917A00846080937A0080917A001E
:104B6000826080937A0080917A00816080937A00DD
:104B700080917A00806880937A001092C10061E091
:104B800083E00E9412031092CF031092CE03109282
:104B9000CD031092CC030E949B0486EA91E090938F
:104BA000CB038093CA0387EA91E09093C903809373
:104BB000C8031092430580914805823018F098E0B0
:104BC000909343058093460562E370E080E090E0B7
:104BD0000E94E503609149058EE395E00E945F0520
:104BE00068EE73E080E090E00E94E50360E38EE30E
:104BF00095E00E94BA090BE416E4C8010197F1F7A9
:104C000060E38EE395E00E94BA09C8010197F1F7CD
:104C100060E38EE395E00E94BA0983E592E0019794
:104C2000F1F760E28EE395E00E94BA0960914305D6
:104C3000606240E08EE395E00E94D30984E08093B7
:104C4000440540E06CE08EE395E00E94D30940E02B
:104C500061E08EE395E00E94D3090BE31FE1C801F8
:104C60000197F1F782E08093450540E066E08EE32E
:104C700095E00E94D30940E062E08EE395E00E9457
:104C8000D309C8010197F1F788E08093490560E0F6
:104C90008EE395E00E945F0540E061E08EE395E0E1
:104CA0000E94D309C8010197F1F740E062E08EE36A
:104CB00095E00E94D309C8010197F1F760E080E018
:104CC0000E94EA0987E692E00E94630961E080E0C1
:104CD0000E94EA098AE692E00E9463098EEF8093BF
:104CE0001F069DEE909320062AEB209321068093C9
:104CF0002206809323069093240620E031E0D90118
:104D00000D900020E9F79D0121503140A0E0B1E075
:104D1000E1E0F0E0AD01405051404217530784F408
:104D2000AF014F5F5F4F6D91E450FA4F83A186272B
:104D300083A34630510514F041E050E0FA01EACF78
:104D40008091360481112AC010921E0410921D0415
:104D500088EE93E0A0E0B0E080931F0490932004DD
:104D6000A0932104B09322048FE391E090931C045C
:104D700080931B0487EC91E090932A04809329048C
:104D800010922B0410922C0410922D0410922E04D9
:104D900084E08093330481E08093360488ED93E0CF
:104DA0009093D7038093D6038091D5038111ADC032
:104DB00060E372E080E090E00E94E503DFB6F894E3
:104DC0000EE012E0E2E2EE2EE2E0FE2E8091D3034E
:104DD000811125C0F8018491F7019491E82FF0E04A
:104DE000EE0FFF1FE051FE4FA591B4918C919823D7
:104DF00021F461E08AE00E94E40261E08AE00E941E
:104E000012038CB580618CBD8CB580648CBD61E073
:104E10008DE00E94120361E08BE00E9412038091FA
:104E2000D3038F5F8093D303DFBEF8010491E02F9B
:104E3000F0E0EE0FFF1FEA51FE4F859194919093A1
:104E4000D2038093D103F701E490E092D00361E0B4
:104E50008AE00E9412030E94600680E591E00E94B1
:104E60008D0184E380935E0480E80E942C070E94F9
:104E7000330C882309F4FDC188E00E942C070E94AE
:104E8000200C883009F0F5C180E10E942C070E94B7
:104E9000200C803109F0EDC180E00E942C070E94B7
:104EA000200C182F8111E5C141E050E0BE016F5F79
:104EB0007F4F8FE190E00E94AB0A8981833009F037
:104EC000D8C180E48093D40342E06EE170E0812F8A
:104ED0000E94880742E06FE170E0812F0E948807FE
:104EE0001F5F143089F740E06EE170E0812F0E946F
:104EF000880740E06FE170E0812F0E9488071F5F04
:104F0000183089F781E08093D50380E591E00E9415
:104F10008D0146E050E06FE176E089E090E00E948C
:104F20007C0687EC91E09A8389831B821C821D8218
:104F30001E8244E050E0BE016D5F7F4F8FE090E045
:104F40000E947C060091D6031091D703D801929657
:104F50001D921D921D921C929597F80116A217A200
:104F600010A611A69A961D921D921D921C929D97B5
:104F700080E69AEEA0E0B0E086AB97ABA0AFB1AF11
:104F800080EA9FE0A0E0B0E082AF93AFA4AFB5AFFE
:104F9000D801189686E0FD01282F11922A95E9F78D
:104FA0009801225F3F4F94E1F90111929A95E9F738
:104FB000EFE1F6E001900D928A95E1F72C5C3F4F0E
:104FC00039AB28ABD9011C920E94E32E2FEC37E0BD
:104FD00040E050E00E943133DC01CB010196A11D7D
:104FE000B11DF80184839583A683B7838083918361
:104FF000A283B3835801F3E4AF0EB11CC5010E9434
:105000007B0B64E470E0C5010E94E40E882309F480
:1050100099C10E9418042B013C0143E0242E58EE54
:10502000C52E53E0D52EE12CF12C912C812CA8A972
:10503000B9A98C918330B9F181118EC1F8018481B5
:105040009581A681B7810196A11DB11D84839583A9
:10505000A683B7830E941804641975098609970905
:10506000A70196010E949A33A90161E0C8010E943C
:105070008C1681E0A8A9B9A98C93F1E08F16910450
:10508000B1F20E9418046419750986099709D801BC
:10509000D6962D913D914D915C91D9972617370762
:1050A0004807590710F6C5010E947B0BF80184815F
:1050B0009581A681B7810196A11DB11D8483958339
:1050C000A683B7830E941804F801FE96608371835B
:1050D000828393838A94892809F034C180E591E022
:1050E0000E948D010091D6031091D703B801625F31
:1050F0007F4FCE0101960E94891244E050E0BE012C
:105100006D5F7F4F8FE090E00E947C06B8016A5E81
:105110007F4FCE0101960E94891244E050E0BE010B
:105120006D5F7F4F81E090E00E947C06B8016E5E6B
:105130007F4FCE0101960E94891244E050E0BE01EB
:105140006D5F7F4F85E090E00E947C06B801625E53
:105150007F4FCE0101960E9489128B819C81AD8187
:10516000BE818093280590932905A0932A05B093CA
:105170002B050E94C0037F73809121019091220131
:1051800068277927709322016093210168EE73E00C
:1051900080E090E00E94E50387EC91E09A838983A8
:1051A0001B821C821D821E8280E591E00E948D017F
:1051B00044E050E0BE016D5F7F4F8FE090E00E94C1
:1051C000AB0A80E091E090930906809308060E9464
:1051D0001804DC01CB0188589341A109B1098093DF
:1051E000100690931106A0931206B09313068093B5
:1051F0000C0690930D06A0930E06B0930F068093B5
:10520000140690931506A0931606B0931706E09126
:105210000606F09107068DE692E09187808780E58B
:1052200090E09387828780910606909107060E94FE
:10523000DF0810921E0610921D060E9418044B01F2
:105240005C0180911D0690911E06019709F451C1E1
:105250000E941804681979098A099B096035764407
:105260008105910508F045C18CEF95E00E94FE197B
:10527000E8CF87E380935E0480E80E942C070E94B9
:10528000330C882329F188E00E942C070E94200C0F
:105290008830F1F480E10E942C070E94200C182F26
:1052A0008031B1F480E00E942C070E94200C811113
:1052B0000FC041E050E0BE016F5F7F4F89E390E097
:1052C0000E94AB0A8981843019F41093D4031ACE5A
:1052D00083E380935E0480E80E942C070E94330CD5
:1052E000882371F180E10E942C070E94200C8031FC
:1052F00039F582E10E942C070E94200C823101F5D1
:1053000080E00E942C070E94200C811119C084E0CB
:105310008093D40315E51FA741E050E0BE01615D15
:105320007F4F8BE190E00E947C061EA741E050E099
:10533000BE01625D7F4F8AE190E00E947C06E2CD73
:1053400010925E0460E177E280E090E00E94E50365
:10535000F0E0E0E00995FFCF843001F5F8018481A9
:105360009581A681B7810196A11DB11D8483958386
:10537000A683B7830E9418046419750986099709E2
:10538000A70196010E949A33A90163E0C8010E9417
:105390008C16E2E0A8A9B9A9EC936FCE813069F52B
:1053A000D801DA964D915D916D917C91DD979E01CA
:1053B0002F5F3F4FC8010E943A18382EB2E08B137E
:1053C00091C089819A81AB81BC81F80184839583E6
:1053D000A683B7830E941804641975098609970982
:1053E000A70196010E949A33A90163E0C8010E94B7
:1053F0008C16A8A9B9A93C9240CE823009F03DCEC6
:10540000F80142AD53AD64AD75AD9E012F5F3F4FC6
:10541000C8010E943A18382EF5E08F135CC0A8A985
:10542000B9A92C92F80182A193A1A4A1B5A1892BBD
:105430008A2B8B2B41F484E893E0A0E0B0E082A3B8
:1054400093A3A4A3B5A3F80186A197A1A0A5B1A594
:10545000892B8A2B8B2B61F482A193A1A4A1B5A1E6
:10546000B695A7959795879586A397A3A0A7B1A76B
:10547000F80182A593A5A4A5B5A5892B8A2B8B2B12
:10548000A9F482A193A1A4A1B5A1AC01BD0123E01F
:1054900076956795579547952A95D1F7841B950B77
:1054A000A60BB70B82A793A7A4A7B5A7F80186A15F
:1054B00097A1A0A5B1A586A797A7A0ABB1AB82A5E0
:1054C00093A5A4A5B5A582AB93ABA4ABB5AB88243B
:1054D0008394912CD2CDF6E08F1304C0A8A9B9A96A
:1054E0001C92CBCDBFEF3B12C8CDE8A9F9A9108221
:1054F000C4CD80911D0690911E06019709F093CEB0
:1055000061E085E00E94120361E084E00E941203E2
:1055100060E085E00E94E40260E084E00E94E40232
:105520008091FA059091FB0597FF22C00E94180414
:10553000EAE4F5E050E040E026E1249FD001259F19
:10554000B00D11248D01065B1A4FD801322F1D9228
:105550003A95E9F760837183828393834F5F5F4F4E
:1055600076964830510549F71092FB051092FA05DE
:105570008091FA059091FB050897CCF5EAE4F5E0F7
:1055800090E080E024813581232B09F042C22681FE
:105590003781232B09F03DC226E1289F8001299FF6
:1055A000100D1124065B1A4F84EF91E0A0E0B0E0EB
:1055B000F80183879487A587B6878FE691E2958364
:1055C00084831286108A178681E0838B0E941804D8
:1055D000D8016D937D938D939C9313978091FA05D9
:1055E0009091FB0501969093FB058093FA05E0915D
:1055F0006F04F091700482E08083E0916B04F0917D
:105600006C041082E0916D04F0916E0487E6808353
:1056100010927704E0917304F091740486E0808323
:10562000E0917104F0917204808180618083E09147
:105630007104F0917204808188608083E09171042C
:10564000F0917204808180688083E0917104F09110
:10565000720480818F7D80838FEF90E00E9496029C
:105660008FEF90E00E9496028FEF90E00E949602EA
:1056700022242394312CCC24CA9433E0D32E8CEFF3
:1056800095E00E94FE190E94180468AB79AB8AABC2
:105690009BAB9AE4E92E95E0F92E8701F801158A73
:1056A000148A84819581892B21F486819781892BA5
:1056B000A9F1D8014D905D906D907C90139768A9E9
:1056C00079A98AA99BA964197509860997091B9666
:1056D0008D909D90AD90BC901E97681579058A05B8
:1056E0009B05E0F0A50194010E949A33C501B40125
:1056F0000E944234460E571E681E791EF8014082F1
:105700005182628273828389882341F027853089A0
:105710002115310509F084C1358A248A0A5E1F4F9C
:10572000F5E00A3F1F0709F0B9CF10E000E0D7010C
:1057300054968D919C915597892BE9F11A968C91ED
:105740001A97882309F483C11696ED91FC91179757
:1057500018968D919C910995F701848995890297F6
:1057600051F58091FA059091FB05892B21F18481F7
:105770009581892B21F486819781892BE1F026E19F
:10578000209FF001219FF00D1124E65BFA4FDF010D
:105790001D922A95E9F70E941804F701608371832E
:1057A000828393838091FA059091FB0501979093F2
:1057B000FB058093FA050F5F1F4FF6E1EF0EF11C1A
:1057C0000830110509F0B3CF8FE00E94AB03B6019A
:1057D000681B790B769567957695679583E00E94AF
:1057E0004E0364E670E080E090E00E94E50319A6B5
:1057F00018A61BA61AA61DA61CA670E060E0CE0186
:1058000088960E94DA1728A539A5811125C121158E
:10581000310519F0C9010E940E2E19A618A61DA661
:105820001CA61BA61AA60E9436081BA21AA21DA21D
:105830001CA21FA21EA28E010F5F1F4F22E044E098
:105840000E94542D7C01009709F415C1FC010190C0
:105850000020E9F731978F01081B190BB801CE0121
:1058600082960E94DA172AA13BA18111FDC0211561
:10587000310519F0C9010E940E2E1BA21AA21FA207
:105880001EA21DA21CA288A599A5009709F4FBC021
:105890006AA17BA16115710509F4F3C04AA55BA556
:1058A0002EA13FA14217530708F4EBC00E94AD356B
:1058B0008EA19FA19DA78CA71FA21EA28AA19BA11A
:1058C000009711F00E940E2E60E082E00E94EA092B
:1058D0004CA55DA568A579A58EE395E00E94A90178
:1058E0000E9462088C01909341048093400461E01F
:1058F00082E00E94EA09A80170E060E02AE08EE3FD
:1059000095E00E940A090E94360820E030E04CE051
:1059100052E40E943D341816F4F480913E0488232A
:10592000D1F060E085E00E94E40260E087E00E9440
:10593000EA0989E792E00E94630981E892E00E9407
:10594000A52081EA92E00E94A52070E060E082E05C
:1059500090E00E940A218091400490914104803D92
:105960009740F8F480913F0481111BC00E945A08AF
:1059700081E080933F0461E087E00E94EA0980EEC5
:1059800091E00E94630984EB92E00E94A5208FECD5
:1059900092E00E94A52061E070E084E090E00E9427
:1059A0000A218091400490914104883B9B40F0F093
:1059B00080913F048823D1F00E94520810923F0446
:1059C00061E087E00E94EA098BEE91E00E946309A2
:1059D00086EE92E00E94A52084EF92E00E94A5202E
:1059E00070E060E084E090E00E940A2188A599A51B
:1059F000009711F00E940E2E80E090E0892B09F4B0
:105A00003ECE0E941302882309F439CE0E94000082
:105A100036CE019676968830910509F0B3CDE7CD64
:105A2000D801818992898217930708F077CE358A49
:105A3000248A0196928B818B8217930708F46ECE8D
:105A4000E2E0F0E05596FC93EE93549767CE1496FF
:105A5000ED91FC91099580CE1DA61CA660EA72E02E
:105A6000C9010E94AD35DFCE1FA30EA3B701C90146
:105A70000E94AD3508CF8AA19BA1009709F0FBCE0B
:105A8000FCCE0E940E2E8AA19BA199A788A78CA16B
:105A90009DA19BA78AA78EA19FA19DA78CA71BA2B2
:105AA0001AA21DA21CA208CFEF920F931F93CF93AF
:105AB000DF93E80134E047FD34E1042E000C550B80
:105AC00057FF03C0519541955109E32E022F242F12
:105AD000AE010E94CB2FCE01DF91CF911F910F918C
